{
  "contractName": "SMSwallet",
  "abi": [
    {
      "inputs": [
        {
          "internalType": "string",
          "name": "_phoneNum",
          "type": "string"
        },
        {
          "internalType": "address payable",
          "name": "_smsOwner",
          "type": "address"
        },
        {
          "internalType": "address payable",
          "name": "_rent",
          "type": "address"
        },
        {
          "internalType": "address payable",
          "name": "_phone",
          "type": "address"
        },
        {
          "internalType": "address payable",
          "name": "_internet",
          "type": "address"
        },
        {
          "internalType": "address payable",
          "name": "_friendOne",
          "type": "address"
        },
        {
          "internalType": "address payable",
          "name": "_friendTwo",
          "type": "address"
        }
      ],
      "stateMutability": "nonpayable",
      "type": "constructor"
    },
    {
      "stateMutability": "payable",
      "type": "fallback"
    },
    {
      "inputs": [],
      "name": "SMSowner",
      "outputs": [
        {
          "internalType": "address payable",
          "name": "",
          "type": "address"
        }
      ],
      "stateMutability": "view",
      "type": "function"
    },
    {
      "inputs": [],
      "name": "friendOne",
      "outputs": [
        {
          "internalType": "address payable",
          "name": "",
          "type": "address"
        }
      ],
      "stateMutability": "view",
      "type": "function"
    },
    {
      "inputs": [],
      "name": "friendTwo",
      "outputs": [
        {
          "internalType": "address payable",
          "name": "",
          "type": "address"
        }
      ],
      "stateMutability": "view",
      "type": "function"
    },
    {
      "inputs": [],
      "name": "internet",
      "outputs": [
        {
          "internalType": "address payable",
          "name": "",
          "type": "address"
        }
      ],
      "stateMutability": "view",
      "type": "function"
    },
    {
      "inputs": [],
      "name": "phone",
      "outputs": [
        {
          "internalType": "address payable",
          "name": "",
          "type": "address"
        }
      ],
      "stateMutability": "view",
      "type": "function"
    },
    {
      "inputs": [],
      "name": "rent",
      "outputs": [
        {
          "internalType": "address payable",
          "name": "",
          "type": "address"
        }
      ],
      "stateMutability": "view",
      "type": "function"
    },
    {
      "stateMutability": "payable",
      "type": "receive"
    },
    {
      "inputs": [
        {
          "internalType": "string",
          "name": "_service",
          "type": "string"
        },
        {
          "internalType": "uint256",
          "name": "_sendAmount",
          "type": "uint256"
        }
      ],
      "name": "makePayment",
      "outputs": [],
      "stateMutability": "nonpayable",
      "type": "function"
    },
    {
      "inputs": [],
      "name": "getAddressInfo",
      "outputs": [
        {
          "internalType": "string",
          "name": "",
          "type": "string"
        },
        {
          "internalType": "address",
          "name": "",
          "type": "address"
        },
        {
          "internalType": "address",
          "name": "",
          "type": "address"
        },
        {
          "internalType": "address",
          "name": "",
          "type": "address"
        },
        {
          "internalType": "address",
          "name": "",
          "type": "address"
        },
        {
          "internalType": "address",
          "name": "",
          "type": "address"
        },
        {
          "internalType": "address",
          "name": "",
          "type": "address"
        }
      ],
      "stateMutability": "view",
      "type": "function"
    },
    {
      "inputs": [],
      "name": "destroyContract",
      "outputs": [],
      "stateMutability": "nonpayable",
      "type": "function"
    }
  ],
  "bytecode": "0x60806040523480156200001157600080fd5b50604051620015f3380380620015f3833981810160405260e08110156200003757600080fd5b81019080805160405193929190846401000000008211156200005857600080fd5b838201915060208201858111156200006f57600080fd5b82518660018202830111640100000000821117156200008d57600080fd5b8083526020830192505050908051906020019080838360005b83811015620000c3578082015181840152602081019050620000a6565b50505050905090810190601f168015620000f15780820380516001836020036101000a031916815260200191505b50604052602001805190602001909291908051906020019092919080519060200190929190805190602001909291908051906020019092919080519060200190929190505050336000806101000a81548173ffffffffffffffffffffffffffffffffffffffff021916908373ffffffffffffffffffffffffffffffffffffffff16021790555085600160006101000a81548173ffffffffffffffffffffffffffffffffffffffff021916908373ffffffffffffffffffffffffffffffffffffffff1602179055508660029080519060200190620001d092919062000323565b5083600360006101000a81548173ffffffffffffffffffffffffffffffffffffffff021916908373ffffffffffffffffffffffffffffffffffffffff16021790555082600460006101000a81548173ffffffffffffffffffffffffffffffffffffffff021916908373ffffffffffffffffffffffffffffffffffffffff16021790555084600560006101000a81548173ffffffffffffffffffffffffffffffffffffffff021916908373ffffffffffffffffffffffffffffffffffffffff16021790555081600660006101000a81548173ffffffffffffffffffffffffffffffffffffffff021916908373ffffffffffffffffffffffffffffffffffffffff16021790555080600760006101000a81548173ffffffffffffffffffffffffffffffffffffffff021916908373ffffffffffffffffffffffffffffffffffffffff16021790555050505050505050620003d9565b828054600181600116156101000203166002900490600052602060002090601f0160209004810192826200035b5760008555620003a7565b82601f106200037657805160ff1916838001178555620003a7565b82800160010185558215620003a7579182015b82811115620003a657825182559160200191906001019062000389565b5b509050620003b69190620003ba565b5090565b5b80821115620003d5576000816000905550600101620003bb565b5090565b61120a80620003e96000396000f3fe60806040526004361061008a5760003560e01c806382996d9f1161005957806382996d9f146102b95780639284f497146102fa578063c74269521461033b578063f594226f1461037c578063ff106811146103bd57610091565b8063092a5cce146100935780630ec12782146100aa5780632a5f5281146100eb5780634f2a36ab1461017b57610091565b3661009157005b005b34801561009f57600080fd5b506100a86103fe565b005b3480156100b657600080fd5b506100bf610552565b604051808273ffffffffffffffffffffffffffffffffffffffff16815260200191505060405180910390f35b3480156100f757600080fd5b506101796004803603604081101561010e57600080fd5b810190808035906020019064010000000081111561012b57600080fd5b82018360208201111561013d57600080fd5b8035906020019184600183028401116401000000008311171561015f57600080fd5b909192939192939080359060200190929190505050610578565b005b34801561018757600080fd5b50610190610f84565b60405180806020018873ffffffffffffffffffffffffffffffffffffffff1681526020018773ffffffffffffffffffffffffffffffffffffffff1681526020018673ffffffffffffffffffffffffffffffffffffffff1681526020018573ffffffffffffffffffffffffffffffffffffffff1681526020018473ffffffffffffffffffffffffffffffffffffffff1681526020018373ffffffffffffffffffffffffffffffffffffffff168152602001828103825289818151815260200191508051906020019080838360005b8381101561027857808201518184015260208101905061025d565b50505050905090810190601f1680156102a55780820380516001836020036101000a031916815260200191505b509850505050505050505060405180910390f35b3480156102c557600080fd5b506102ce611116565b604051808273ffffffffffffffffffffffffffffffffffffffff16815260200191505060405180910390f35b34801561030657600080fd5b5061030f61113c565b604051808273ffffffffffffffffffffffffffffffffffffffff16815260200191505060405180910390f35b34801561034757600080fd5b50610350611162565b604051808273ffffffffffffffffffffffffffffffffffffffff16815260200191505060405180910390f35b34801561038857600080fd5b50610391611188565b604051808273ffffffffffffffffffffffffffffffffffffffff16815260200191505060405180910390f35b3480156103c957600080fd5b506103d26111ae565b604051808273ffffffffffffffffffffffffffffffffffffffff16815260200191505060405180910390f35b60008054906101000a900473ffffffffffffffffffffffffffffffffffffffff1673ffffffffffffffffffffffffffffffffffffffff163373ffffffffffffffffffffffffffffffffffffffff1614806104a55750600160009054906101000a900473ffffffffffffffffffffffffffffffffffffffff1673ffffffffffffffffffffffffffffffffffffffff163373ffffffffffffffffffffffffffffffffffffffff16145b610517576040517f08c379a000000000000000000000000000000000000000000000000000000000815260040180806020018281038252600e8152602001807f4e6f7420617574686f72697a656400000000000000000000000000000000000081525060200191505060405180910390fd5b600160009054906101000a900473ffffffffffffffffffffffffffffffffffffffff1673ffffffffffffffffffffffffffffffffffffffff16ff5b600460009054906101000a900473ffffffffffffffffffffffffffffffffffffffff1681565b60008054906101000a900473ffffffffffffffffffffffffffffffffffffffff1673ffffffffffffffffffffffffffffffffffffffff163373ffffffffffffffffffffffffffffffffffffffff16148061061f5750600160009054906101000a900473ffffffffffffffffffffffffffffffffffffffff1673ffffffffffffffffffffffffffffffffffffffff163373ffffffffffffffffffffffffffffffffffffffff16145b610691576040517f08c379a000000000000000000000000000000000000000000000000000000000815260040180806020018281038252600e8152602001807f4e6f7420617574686f72697a656400000000000000000000000000000000000081525060200191505060405180910390fd5b60405160200180807f72656e7400000000000000000000000000000000000000000000000000000000815250600401905060405160208183030381529060405280519060200120838360405160200180838380828437808301925050509250505060405160208183030381529060405280519060200120141561080e576000600560009054906101000a900473ffffffffffffffffffffffffffffffffffffffff1673ffffffffffffffffffffffffffffffffffffffff168260405180600001905060006040518083038185875af1925050503d8060008114610790576040519150601f19603f3d011682016040523d82523d6000602084013e610795565b606091505b505090508061080c576040517f08c379a00000000000000000000000000000000000000000000000000000000081526004018080602001828103825260148152602001807f4661696c656420746f2073656e6420457468657200000000000000000000000081525060200191505060405180910390fd5b505b60405160200180807f70686f6e65000000000000000000000000000000000000000000000000000000815250600501905060405160208183030381529060405280519060200120838360405160200180838380828437808301925050509250505060405160208183030381529060405280519060200120141561098b576000600360009054906101000a900473ffffffffffffffffffffffffffffffffffffffff1673ffffffffffffffffffffffffffffffffffffffff168260405180600001905060006040518083038185875af1925050503d806000811461090d576040519150601f19603f3d011682016040523d82523d6000602084013e610912565b606091505b5050905080610989576040517f08c379a00000000000000000000000000000000000000000000000000000000081526004018080602001828103825260148152602001807f4661696c656420746f2073656e6420457468657200000000000000000000000081525060200191505060405180910390fd5b505b60405160200180807f696e7465726e65740000000000000000000000000000000000000000000000008152506008019050604051602081830303815290604052805190602001208383604051602001808383808284378083019250505092505050604051602081830303815290604052805190602001201415610b08576000600460009054906101000a900473ffffffffffffffffffffffffffffffffffffffff1673ffffffffffffffffffffffffffffffffffffffff168260405180600001905060006040518083038185875af1925050503d8060008114610a8a576040519150601f19603f3d011682016040523d82523d6000602084013e610a8f565b606091505b5050905080610b06576040517f08c379a00000000000000000000000000000000000000000000000000000000081526004018080602001828103825260148152602001807f4661696c656420746f2073656e6420457468657200000000000000000000000081525060200191505060405180910390fd5b505b60405160200180807f667269656e6431000000000000000000000000000000000000000000000000008152506007019050604051602081830303815290604052805190602001208383604051602001808383808284378083019250505092505050604051602081830303815290604052805190602001201415610c85576000600660009054906101000a900473ffffffffffffffffffffffffffffffffffffffff1673ffffffffffffffffffffffffffffffffffffffff168260405180600001905060006040518083038185875af1925050503d8060008114610c07576040519150601f19603f3d011682016040523d82523d6000602084013e610c0c565b606091505b5050905080610c83576040517f08c379a00000000000000000000000000000000000000000000000000000000081526004018080602001828103825260148152602001807f4661696c656420746f2073656e6420457468657200000000000000000000000081525060200191505060405180910390fd5b505b60405160200180807f667269656e6432000000000000000000000000000000000000000000000000008152506007019050604051602081830303815290604052805190602001208383604051602001808383808284378083019250505092505050604051602081830303815290604052805190602001201415610e02576000600760009054906101000a900473ffffffffffffffffffffffffffffffffffffffff1673ffffffffffffffffffffffffffffffffffffffff168260405180600001905060006040518083038185875af1925050503d8060008114610d84576040519150601f19603f3d011682016040523d82523d6000602084013e610d89565b606091505b5050905080610e00576040517f08c379a00000000000000000000000000000000000000000000000000000000081526004018080602001828103825260148152602001807f4661696c656420746f2073656e6420457468657200000000000000000000000081525060200191505060405180910390fd5b505b60405160200180807f6d7973656c6600000000000000000000000000000000000000000000000000008152506006019050604051602081830303815290604052805190602001208383604051602001808383808284378083019250505092505050604051602081830303815290604052805190602001201415610f7f576000600160009054906101000a900473ffffffffffffffffffffffffffffffffffffffff1673ffffffffffffffffffffffffffffffffffffffff168260405180600001905060006040518083038185875af1925050503d8060008114610f01576040519150601f19603f3d011682016040523d82523d6000602084013e610f06565b606091505b5050905080610f7d576040517f08c379a00000000000000000000000000000000000000000000000000000000081526004018080602001828103825260148152602001807f4661696c656420746f2073656e6420457468657200000000000000000000000081525060200191505060405180910390fd5b505b505050565b60606000806000806000806002600160009054906101000a900473ffffffffffffffffffffffffffffffffffffffff16600560009054906101000a900473ffffffffffffffffffffffffffffffffffffffff16600360009054906101000a900473ffffffffffffffffffffffffffffffffffffffff16600460009054906101000a900473ffffffffffffffffffffffffffffffffffffffff16600660009054906101000a900473ffffffffffffffffffffffffffffffffffffffff16600760009054906101000a900473ffffffffffffffffffffffffffffffffffffffff16868054600181600116156101000203166002900480601f0160208091040260200160405190810160405280929190818152602001828054600181600116156101000203166002900480156110f85780601f106110cd576101008083540402835291602001916110f8565b820191906000526020600020905b8154815290600101906020018083116110db57829003601f168201915b50505050509650965096509650965096509650965090919293949596565b600560009054906101000a900473ffffffffffffffffffffffffffffffffffffffff1681565b600360009054906101000a900473ffffffffffffffffffffffffffffffffffffffff1681565b600660009054906101000a900473ffffffffffffffffffffffffffffffffffffffff1681565b600160009054906101000a900473ffffffffffffffffffffffffffffffffffffffff1681565b600760009054906101000a900473ffffffffffffffffffffffffffffffffffffffff168156fea2646970667358221220d1540345de5c28ae4d63ca3deac0d3571d9b0e9ae74444cbbd34d17f0a18734264736f6c63430007060033",
  "immutableReferences": {},
  "source": "pragma solidity >=0.5.0 <0.8.0;\n\n\ncontract SMSwallet {\n\n    address banker;\n    address payable public SMSowner;\n    string phoneNum;\n\n    address payable public phone;\n    address payable public internet;\n    address payable public rent;\n    address payable public friendOne;\n    address payable public friendTwo;\n\n\n    constructor(string memory _phoneNum, address payable _smsOwner, address payable _rent, address payable _phone, \n                address payable _internet, address payable _friendOne, address payable _friendTwo) {\n        banker = msg.sender;\n        SMSowner = _smsOwner;\n        phoneNum = _phoneNum;\n        phone = _phone;\n        internet = _internet;\n        rent = _rent;\n        friendOne = _friendOne;\n        friendTwo = _friendTwo;\n    }\n\n    modifier onlyOwners() {\n        require( msg.sender == banker || msg.sender == SMSowner, \"Not authorized\" );\n        _;\n    }\n\n    receive() external payable {}\n    fallback() external payable {}\n\n\n    function makePayment(string calldata _service, uint256 _sendAmount) external onlyOwners {\n        if( keccak256(abi.encodePacked(_service)) == keccak256(abi.encodePacked('rent')) ){\n            (bool sent, ) = rent.call{value: _sendAmount}(\"\");\n            require(sent, \"Failed to send Ether\");\n        }\n        if( keccak256(abi.encodePacked(_service)) == keccak256(abi.encodePacked('phone')) ){\n            (bool sent, ) = phone.call{value: _sendAmount}(\"\");\n            require(sent, \"Failed to send Ether\");\n        }\n        if( keccak256(abi.encodePacked(_service)) == keccak256(abi.encodePacked('internet')) ){\n            (bool sent, ) = internet.call{value: _sendAmount}(\"\");\n            require(sent, \"Failed to send Ether\");\n        }\n        if( keccak256(abi.encodePacked(_service)) == keccak256(abi.encodePacked('friend1')) ){\n            (bool sent, ) = friendOne.call{value: _sendAmount}(\"\");\n            require(sent, \"Failed to send Ether\");\n        }\n        if( keccak256(abi.encodePacked(_service)) == keccak256(abi.encodePacked('friend2')) ){\n            (bool sent, ) = friendTwo.call{value: _sendAmount}(\"\");\n            require(sent, \"Failed to send Ether\");\n        }\n        if( keccak256(abi.encodePacked(_service)) == keccak256(abi.encodePacked('myself')) ){\n            (bool sent, ) = SMSowner.call{value: _sendAmount}(\"\");\n            require(sent, \"Failed to send Ether\");\n        }\n\n    }\n    \n    function getAddressInfo() public view returns (string memory, address, address, address, address, address, address) {\n        return( phoneNum, SMSowner, rent, phone, internet, friendOne, friendTwo );\n    }\n\n    function destroyContract() public onlyOwners {\n        selfdestruct(SMSowner);\n    }\n\n}\n\n",
  "sourcePath": "/home/waffles/eth-denver/sms/contracts/SMSwallet.sol",
  "compiler": {
    "name": "solc",
    "version": "0.7.6+commit.7338295f.Emscripten.clang"
  },
  "schemaVersion": "3.3.4",
  "updatedAt": "2021-04-11T19:11:16.629Z",
  "devdoc": {
    "kind": "dev",
    "methods": {},
    "version": 1
  },
  "userdoc": {
    "kind": "user",
    "methods": {},
    "version": 1
  }
}